{
    "_format": "hh-sol-artifact-1",
    "contractName": "PhykenNFT",
    "sourceName": "contracts/PhykenNFT.sol",
    "abi": [
        {
            "inputs": [
                {
                    "internalType": "address",
                    "name": "initialOwner",
                    "type": "address"
                }
            ],
            "stateMutability": "payable",
            "type": "constructor"
        },
        {
            "inputs": [
                {
                    "internalType": "address",
                    "name": "sender",
                    "type": "address"
                },
                {
                    "internalType": "uint256",
                    "name": "tokenId",
                    "type": "uint256"
                },
                {
                    "internalType": "address",
                    "name": "owner",
                    "type": "address"
                }
            ],
            "name": "ERC721IncorrectOwner",
            "type": "error"
        },
        {
            "inputs": [
                {
                    "internalType": "address",
                    "name": "operator",
                    "type": "address"
                },
                {
                    "internalType": "uint256",
                    "name": "tokenId",
                    "type": "uint256"
                }
            ],
            "name": "ERC721InsufficientApproval",
            "type": "error"
        },
        {
            "inputs": [
                {
                    "internalType": "address",
                    "name": "approver",
                    "type": "address"
                }
            ],
            "name": "ERC721InvalidApprover",
            "type": "error"
        },
        {
            "inputs": [
                {
                    "internalType": "address",
                    "name": "operator",
                    "type": "address"
                }
            ],
            "name": "ERC721InvalidOperator",
            "type": "error"
        },
        {
            "inputs": [
                {
                    "internalType": "address",
                    "name": "owner",
                    "type": "address"
                }
            ],
            "name": "ERC721InvalidOwner",
            "type": "error"
        },
        {
            "inputs": [
                {
                    "internalType": "address",
                    "name": "receiver",
                    "type": "address"
                }
            ],
            "name": "ERC721InvalidReceiver",
            "type": "error"
        },
        {
            "inputs": [
                {
                    "internalType": "address",
                    "name": "sender",
                    "type": "address"
                }
            ],
            "name": "ERC721InvalidSender",
            "type": "error"
        },
        {
            "inputs": [
                {
                    "internalType": "uint256",
                    "name": "tokenId",
                    "type": "uint256"
                }
            ],
            "name": "ERC721NonexistentToken",
            "type": "error"
        },
        {
            "inputs": [
                {
                    "internalType": "address",
                    "name": "owner",
                    "type": "address"
                }
            ],
            "name": "OwnableInvalidOwner",
            "type": "error"
        },
        {
            "inputs": [
                {
                    "internalType": "address",
                    "name": "account",
                    "type": "address"
                }
            ],
            "name": "OwnableUnauthorizedAccount",
            "type": "error"
        },
        {
            "anonymous": false,
            "inputs": [
                {
                    "indexed": true,
                    "internalType": "address",
                    "name": "owner",
                    "type": "address"
                },
                {
                    "indexed": true,
                    "internalType": "address",
                    "name": "approved",
                    "type": "address"
                },
                {
                    "indexed": true,
                    "internalType": "uint256",
                    "name": "tokenId",
                    "type": "uint256"
                }
            ],
            "name": "Approval",
            "type": "event"
        },
        {
            "anonymous": false,
            "inputs": [
                {
                    "indexed": true,
                    "internalType": "address",
                    "name": "owner",
                    "type": "address"
                },
                {
                    "indexed": true,
                    "internalType": "address",
                    "name": "operator",
                    "type": "address"
                },
                {
                    "indexed": false,
                    "internalType": "bool",
                    "name": "approved",
                    "type": "bool"
                }
            ],
            "name": "ApprovalForAll",
            "type": "event"
        },
        {
            "anonymous": false,
            "inputs": [
                {
                    "indexed": true,
                    "internalType": "address",
                    "name": "previousOwner",
                    "type": "address"
                },
                {
                    "indexed": true,
                    "internalType": "address",
                    "name": "newOwner",
                    "type": "address"
                }
            ],
            "name": "OwnershipTransferred",
            "type": "event"
        },
        {
            "anonymous": false,
            "inputs": [
                {
                    "indexed": true,
                    "internalType": "address",
                    "name": "from",
                    "type": "address"
                },
                {
                    "indexed": true,
                    "internalType": "address",
                    "name": "to",
                    "type": "address"
                },
                {
                    "indexed": true,
                    "internalType": "uint256",
                    "name": "tokenId",
                    "type": "uint256"
                }
            ],
            "name": "Transfer",
            "type": "event"
        },
        {
            "inputs": [
                {
                    "internalType": "address",
                    "name": "to",
                    "type": "address"
                },
                {
                    "internalType": "uint256",
                    "name": "tokenId",
                    "type": "uint256"
                }
            ],
            "name": "approve",
            "outputs": [],
            "stateMutability": "nonpayable",
            "type": "function"
        },
        {
            "inputs": [
                {
                    "internalType": "address",
                    "name": "owner",
                    "type": "address"
                }
            ],
            "name": "balanceOf",
            "outputs": [
                {
                    "internalType": "uint256",
                    "name": "",
                    "type": "uint256"
                }
            ],
            "stateMutability": "view",
            "type": "function"
        },
        {
            "inputs": [
                {
                    "internalType": "uint256",
                    "name": "tokenId",
                    "type": "uint256"
                }
            ],
            "name": "getApproved",
            "outputs": [
                {
                    "internalType": "address",
                    "name": "",
                    "type": "address"
                }
            ],
            "stateMutability": "view",
            "type": "function"
        },
        {
            "inputs": [
                {
                    "internalType": "address",
                    "name": "owner",
                    "type": "address"
                },
                {
                    "internalType": "address",
                    "name": "operator",
                    "type": "address"
                }
            ],
            "name": "isApprovedForAll",
            "outputs": [
                {
                    "internalType": "bool",
                    "name": "",
                    "type": "bool"
                }
            ],
            "stateMutability": "view",
            "type": "function"
        },
        {
            "inputs": [],
            "name": "isPublicMintEnabled",
            "outputs": [
                {
                    "internalType": "bool",
                    "name": "",
                    "type": "bool"
                }
            ],
            "stateMutability": "view",
            "type": "function"
        },
        {
            "inputs": [],
            "name": "maxSupply",
            "outputs": [
                {
                    "internalType": "uint256",
                    "name": "",
                    "type": "uint256"
                }
            ],
            "stateMutability": "view",
            "type": "function"
        },
        {
            "inputs": [
                {
                    "internalType": "uint256",
                    "name": "quantity_",
                    "type": "uint256"
                }
            ],
            "name": "mint",
            "outputs": [],
            "stateMutability": "payable",
            "type": "function"
        },
        {
            "inputs": [],
            "name": "mintPrice",
            "outputs": [
                {
                    "internalType": "uint256",
                    "name": "",
                    "type": "uint256"
                }
            ],
            "stateMutability": "view",
            "type": "function"
        },
        {
            "inputs": [],
            "name": "name",
            "outputs": [
                {
                    "internalType": "string",
                    "name": "",
                    "type": "string"
                }
            ],
            "stateMutability": "view",
            "type": "function"
        },
        {
            "inputs": [],
            "name": "owner",
            "outputs": [
                {
                    "internalType": "address",
                    "name": "",
                    "type": "address"
                }
            ],
            "stateMutability": "view",
            "type": "function"
        },
        {
            "inputs": [
                {
                    "internalType": "uint256",
                    "name": "tokenId",
                    "type": "uint256"
                }
            ],
            "name": "ownerOf",
            "outputs": [
                {
                    "internalType": "address",
                    "name": "",
                    "type": "address"
                }
            ],
            "stateMutability": "view",
            "type": "function"
        },
        {
            "inputs": [],
            "name": "renounceOwnership",
            "outputs": [],
            "stateMutability": "nonpayable",
            "type": "function"
        },
        {
            "inputs": [
                {
                    "internalType": "address",
                    "name": "from",
                    "type": "address"
                },
                {
                    "internalType": "address",
                    "name": "to",
                    "type": "address"
                },
                {
                    "internalType": "uint256",
                    "name": "tokenId",
                    "type": "uint256"
                }
            ],
            "name": "safeTransferFrom",
            "outputs": [],
            "stateMutability": "nonpayable",
            "type": "function"
        },
        {
            "inputs": [
                {
                    "internalType": "address",
                    "name": "from",
                    "type": "address"
                },
                {
                    "internalType": "address",
                    "name": "to",
                    "type": "address"
                },
                {
                    "internalType": "uint256",
                    "name": "tokenId",
                    "type": "uint256"
                },
                {
                    "internalType": "bytes",
                    "name": "data",
                    "type": "bytes"
                }
            ],
            "name": "safeTransferFrom",
            "outputs": [],
            "stateMutability": "nonpayable",
            "type": "function"
        },
        {
            "inputs": [
                {
                    "internalType": "address",
                    "name": "operator",
                    "type": "address"
                },
                {
                    "internalType": "bool",
                    "name": "approved",
                    "type": "bool"
                }
            ],
            "name": "setApprovalForAll",
            "outputs": [],
            "stateMutability": "nonpayable",
            "type": "function"
        },
        {
            "inputs": [
                {
                    "internalType": "string",
                    "name": "baseTokenUri_",
                    "type": "string"
                }
            ],
            "name": "setBaseTokenUri",
            "outputs": [],
            "stateMutability": "nonpayable",
            "type": "function"
        },
        {
            "inputs": [
                {
                    "internalType": "bool",
                    "name": "isPublicMintEnabled_",
                    "type": "bool"
                }
            ],
            "name": "setIsPublicMintEnabled",
            "outputs": [],
            "stateMutability": "nonpayable",
            "type": "function"
        },
        {
            "inputs": [
                {
                    "internalType": "bytes4",
                    "name": "interfaceId",
                    "type": "bytes4"
                }
            ],
            "name": "supportsInterface",
            "outputs": [
                {
                    "internalType": "bool",
                    "name": "",
                    "type": "bool"
                }
            ],
            "stateMutability": "view",
            "type": "function"
        },
        {
            "inputs": [],
            "name": "symbol",
            "outputs": [
                {
                    "internalType": "string",
                    "name": "",
                    "type": "string"
                }
            ],
            "stateMutability": "view",
            "type": "function"
        },
        {
            "inputs": [
                {
                    "internalType": "uint256",
                    "name": "tokenId",
                    "type": "uint256"
                }
            ],
            "name": "tokenURI",
            "outputs": [
                {
                    "internalType": "string",
                    "name": "",
                    "type": "string"
                }
            ],
            "stateMutability": "view",
            "type": "function"
        },
        {
            "inputs": [
                {
                    "internalType": "uint256",
                    "name": "tokenId_",
                    "type": "uint256"
                }
            ],
            "name": "tokenUri",
            "outputs": [
                {
                    "internalType": "string",
                    "name": "",
                    "type": "string"
                }
            ],
            "stateMutability": "view",
            "type": "function"
        },
        {
            "inputs": [],
            "name": "totalSupply",
            "outputs": [
                {
                    "internalType": "uint256",
                    "name": "",
                    "type": "uint256"
                }
            ],
            "stateMutability": "view",
            "type": "function"
        },
        {
            "inputs": [
                {
                    "internalType": "address",
                    "name": "from",
                    "type": "address"
                },
                {
                    "internalType": "address",
                    "name": "to",
                    "type": "address"
                },
                {
                    "internalType": "uint256",
                    "name": "tokenId",
                    "type": "uint256"
                }
            ],
            "name": "transferFrom",
            "outputs": [],
            "stateMutability": "nonpayable",
            "type": "function"
        },
        {
            "inputs": [
                {
                    "internalType": "address",
                    "name": "newOwner",
                    "type": "address"
                }
            ],
            "name": "transferOwnership",
            "outputs": [],
            "stateMutability": "nonpayable",
            "type": "function"
        },
        {
            "inputs": [
                {
                    "internalType": "address",
                    "name": "",
                    "type": "address"
                }
            ],
            "name": "walletMints",
            "outputs": [
                {
                    "internalType": "uint256",
                    "name": "",
                    "type": "uint256"
                }
            ],
            "stateMutability": "view",
            "type": "function"
        },
        {
            "inputs": [],
            "name": "withdraw",
            "outputs": [],
            "stateMutability": "nonpayable",
            "type": "function"
        },
        {
            "inputs": [],
            "name": "withdrawWallet",
            "outputs": [
                {
                    "internalType": "address payable",
                    "name": "",
                    "type": "address"
                }
            ],
            "stateMutability": "view",
            "type": "function"
        }
    ],
    "bytecode": "0x60806040526040516200354c3803806200354c833981810160405281019062000029919062000299565b806040518060400160405280600681526020017f5048594b454e00000000000000000000000000000000000000000000000000008152506040518060400160405280600481526020017f5048594b000000000000000000000000000000000000000000000000000000008152508160009081620000a7919062000545565b508060019081620000b9919062000545565b505050600073ffffffffffffffffffffffffffffffffffffffff168173ffffffffffffffffffffffffffffffffffffffff1603620001315760006040517f1e4fbdf70000000000000000000000000000000000000000000000000000000081526004016200012891906200063d565b60405180910390fd5b62000142816200016960201b60201c565b50662386f26fc1000060078190555060006008819055506103e8600981905550506200065a565b6000600660009054906101000a900473ffffffffffffffffffffffffffffffffffffffff16905081600660006101000a81548173ffffffffffffffffffffffffffffffffffffffff021916908373ffffffffffffffffffffffffffffffffffffffff1602179055508173ffffffffffffffffffffffffffffffffffffffff168173ffffffffffffffffffffffffffffffffffffffff167f8be0079c531659141344cd1fd0a4f28419497f9722a3daafe3b4186f6b6457e060405160405180910390a35050565b600080fd5b600073ffffffffffffffffffffffffffffffffffffffff82169050919050565b6000620002618262000234565b9050919050565b620002738162000254565b81146200027f57600080fd5b50565b600081519050620002938162000268565b92915050565b600060208284031215620002b257620002b16200022f565b5b6000620002c28482850162000282565b91505092915050565b600081519050919050565b7f4e487b7100000000000000000000000000000000000000000000000000000000600052604160045260246000fd5b7f4e487b7100000000000000000000000000000000000000000000000000000000600052602260045260246000fd5b600060028204905060018216806200034d57607f821691505b60208210810362000363576200036262000305565b5b50919050565b60008190508160005260206000209050919050565b60006020601f8301049050919050565b600082821b905092915050565b600060088302620003cd7fffffffffffffffffffffffffffffffffffffffffffffffffffffffffffffffff826200038e565b620003d986836200038e565b95508019841693508086168417925050509392505050565b6000819050919050565b6000819050919050565b600062000426620004206200041a84620003f1565b620003fb565b620003f1565b9050919050565b6000819050919050565b620004428362000405565b6200045a62000451826200042d565b8484546200039b565b825550505050565b600090565b6200047162000462565b6200047e81848462000437565b505050565b5b81811015620004a6576200049a60008262000467565b60018101905062000484565b5050565b601f821115620004f557620004bf8162000369565b620004ca846200037e565b81016020851015620004da578190505b620004f2620004e9856200037e565b83018262000483565b50505b505050565b600082821c905092915050565b60006200051a60001984600802620004fa565b1980831691505092915050565b600062000535838362000507565b9150826002028217905092915050565b6200055082620002cb565b67ffffffffffffffff8111156200056c576200056b620002d6565b5b62000578825462000334565b62000585828285620004aa565b600060209050601f831160018114620005bd5760008415620005a8578287015190505b620005b4858262000527565b86555062000624565b601f198416620005cd8662000369565b60005b82811015620005f757848901518255600182019150602085019450602081019050620005d0565b8683101562000617578489015162000613601f89168262000507565b8355505b6001600288020188555050505b505050505050565b620006378162000254565b82525050565b60006020820190506200065460008301846200062c565b92915050565b612ee2806200066a6000396000f3fe60806040526004361061019c5760003560e01c806370a08231116100ec578063a22cb4651161008a578063d5abeb0111610064578063d5abeb01146105a5578063e985e9c5146105d0578063f0293fd31461060d578063f2fde38b1461064a5761019c565b8063a22cb46514610516578063b88d4fde1461053f578063c87b56dd146105685761019c565b80638da5cb5b116100c65780638da5cb5b1461047b57806395652cfa146104a657806395d89b41146104cf578063a0712d68146104fa5761019c565b806370a08231146103fc578063715018a61461043957806385d178f4146104505761019c565b806318160ddd116101595780633ccfd60b116101335780633ccfd60b1461035457806342842e0e1461036b5780636352211e146103945780636817c76c146103d15761019c565b806318160ddd146102d75780632373ac221461030257806323b872dd1461032b5761019c565b80630116bc2d146101a157806301ffc9a7146101cc57806306fdde0314610209578063081812fc14610234578063095ea7b3146102715780631675f4551461029a575b600080fd5b3480156101ad57600080fd5b506101b6610673565b6040516101c39190611ef1565b60405180910390f35b3480156101d857600080fd5b506101f360048036038101906101ee9190611f78565b610686565b6040516102009190611ef1565b60405180910390f35b34801561021557600080fd5b5061021e610768565b60405161022b9190612035565b60405180910390f35b34801561024057600080fd5b5061025b6004803603810190610256919061208d565b6107fa565b60405161026891906120fb565b60405180910390f35b34801561027d57600080fd5b5061029860048036038101906102939190612142565b610816565b005b3480156102a657600080fd5b506102c160048036038101906102bc919061208d565b61082c565b6040516102ce9190612035565b60405180910390f35b3480156102e357600080fd5b506102ec6108c0565b6040516102f99190612191565b60405180910390f35b34801561030e57600080fd5b50610329600480360381019061032491906121d8565b6108c6565b005b34801561033757600080fd5b50610352600480360381019061034d9190612205565b6108eb565b005b34801561036057600080fd5b506103696109ed565b005b34801561037757600080fd5b50610392600480360381019061038d9190612205565b610ac6565b005b3480156103a057600080fd5b506103bb60048036038101906103b6919061208d565b610ae6565b6040516103c891906120fb565b60405180910390f35b3480156103dd57600080fd5b506103e6610af8565b6040516103f39190612191565b60405180910390f35b34801561040857600080fd5b50610423600480360381019061041e9190612258565b610afe565b6040516104309190612191565b60405180910390f35b34801561044557600080fd5b5061044e610bb8565b005b34801561045c57600080fd5b50610465610bcc565b60405161047291906122a6565b60405180910390f35b34801561048757600080fd5b50610490610bf2565b60405161049d91906120fb565b60405180910390f35b3480156104b257600080fd5b506104cd60048036038101906104c89190612326565b610c1c565b005b3480156104db57600080fd5b506104e4610c3a565b6040516104f19190612035565b60405180910390f35b610514600480360381019061050f919061208d565b610ccc565b005b34801561052257600080fd5b5061053d60048036038101906105389190612373565b610e3a565b005b34801561054b57600080fd5b50610566600480360381019061056191906124e3565b610e50565b005b34801561057457600080fd5b5061058f600480360381019061058a919061208d565b610e6d565b60405161059c9190612035565b60405180910390f35b3480156105b157600080fd5b506105ba610ed6565b6040516105c79190612191565b60405180910390f35b3480156105dc57600080fd5b506105f760048036038101906105f29190612566565b610edc565b6040516106049190611ef1565b60405180910390f35b34801561061957600080fd5b50610634600480360381019061062f9190612258565b610f70565b6040516106419190612191565b60405180910390f35b34801561065657600080fd5b50610671600480360381019061066c9190612258565b610f88565b005b600a60009054906101000a900460ff1681565b60007f80ac58cd000000000000000000000000000000000000000000000000000000007bffffffffffffffffffffffffffffffffffffffffffffffffffffffff1916827bffffffffffffffffffffffffffffffffffffffffffffffffffffffff1916148061075157507f5b5e139f000000000000000000000000000000000000000000000000000000007bffffffffffffffffffffffffffffffffffffffffffffffffffffffff1916827bffffffffffffffffffffffffffffffffffffffffffffffffffffffff1916145b8061076157506107608261100e565b5b9050919050565b606060008054610777906125d5565b80601f01602080910402602001604051908101604052809291908181526020018280546107a3906125d5565b80156107f05780601f106107c5576101008083540402835291602001916107f0565b820191906000526020600020905b8154815290600101906020018083116107d357829003601f168201915b5050505050905090565b600061080582611078565b5061080f82611100565b9050919050565b610828828261082361113d565b611145565b5050565b6060600e600083815260200190815260200160002060009054906101000a900460ff1661088e576040517f08c379a000000000000000000000000000000000000000000000000000000000815260040161088590612652565b60405180910390fd5b600b61089983611157565b6040516020016108aa929190612792565b6040516020818303038152906040529050919050565b60085481565b6108ce611225565b80600a60006101000a81548160ff02191690831515021790555050565b600073ffffffffffffffffffffffffffffffffffffffff168273ffffffffffffffffffffffffffffffffffffffff160361095d5760006040517f64a0ae9200000000000000000000000000000000000000000000000000000000815260040161095491906120fb565b60405180910390fd5b6000610971838361096c61113d565b6112ac565b90508373ffffffffffffffffffffffffffffffffffffffff168173ffffffffffffffffffffffffffffffffffffffff16146109e7578382826040517f64283d7b0000000000000000000000000000000000000000000000000000000081526004016109de939291906127c1565b60405180910390fd5b50505050565b6109f5611225565b6000600c60009054906101000a900473ffffffffffffffffffffffffffffffffffffffff1673ffffffffffffffffffffffffffffffffffffffff1647604051610a3d90612829565b60006040518083038185875af1925050503d8060008114610a7a576040519150601f19603f3d011682016040523d82523d6000602084013e610a7f565b606091505b5050905080610ac3576040517f08c379a0000000000000000000000000000000000000000000000000000000008152600401610aba9061288a565b60405180910390fd5b50565b610ae183838360405180602001604052806000815250610e50565b505050565b6000610af182611078565b9050919050565b60075481565b60008073ffffffffffffffffffffffffffffffffffffffff168273ffffffffffffffffffffffffffffffffffffffff1603610b715760006040517f89c62b64000000000000000000000000000000000000000000000000000000008152600401610b6891906120fb565b60405180910390fd5b600360008373ffffffffffffffffffffffffffffffffffffffff1673ffffffffffffffffffffffffffffffffffffffff168152602001908152602001600020549050919050565b610bc0611225565b610bca60006114c6565b565b600c60009054906101000a900473ffffffffffffffffffffffffffffffffffffffff1681565b6000600660009054906101000a900473ffffffffffffffffffffffffffffffffffffffff16905090565b610c24611225565b8181600b9182610c35929190612a4c565b505050565b606060018054610c49906125d5565b80601f0160208091040260200160405190810160405280929190818152602001828054610c75906125d5565b8015610cc25780601f10610c9757610100808354040283529160200191610cc2565b820191906000526020600020905b815481529060010190602001808311610ca557829003601f168201915b5050505050905090565b600a60009054906101000a900460ff16610d1b576040517f08c379a0000000000000000000000000000000000000000000000000000000008152600401610d1290612b68565b60405180910390fd5b60075481610d299190612bb7565b3414610d6a576040517f08c379a0000000000000000000000000000000000000000000000000000000008152600401610d6190612c45565b60405180910390fd5b60095481600854610d7b9190612c65565b1115610dbc576040517f08c379a0000000000000000000000000000000000000000000000000000000008152600401610db390612ce5565b60405180910390fd5b60005b81811015610e365760006001600854610dd89190612c65565b905060086000815480929190610ded90612d05565b9190505550610dfc338261158c565b6001600e600083815260200190815260200160002060006101000a81548160ff021916908315150217905550508080600101915050610dbf565b5050565b610e4c610e4561113d565b83836115aa565b5050565b610e5b8484846108eb565b610e6784848484611719565b50505050565b6060610e7882611078565b506000610e836118d0565b90506000815111610ea35760405180602001604052806000815250610ece565b80610ead84611157565b604051602001610ebe929190612d4d565b6040516020818303038152906040525b915050919050565b60095481565b6000600560008473ffffffffffffffffffffffffffffffffffffffff1673ffffffffffffffffffffffffffffffffffffffff16815260200190815260200160002060008373ffffffffffffffffffffffffffffffffffffffff1673ffffffffffffffffffffffffffffffffffffffff16815260200190815260200160002060009054906101000a900460ff16905092915050565b600d6020528060005260406000206000915090505481565b610f90611225565b600073ffffffffffffffffffffffffffffffffffffffff168173ffffffffffffffffffffffffffffffffffffffff16036110025760006040517f1e4fbdf7000000000000000000000000000000000000000000000000000000008152600401610ff991906120fb565b60405180910390fd5b61100b816114c6565b50565b60007f01ffc9a7000000000000000000000000000000000000000000000000000000007bffffffffffffffffffffffffffffffffffffffffffffffffffffffff1916827bffffffffffffffffffffffffffffffffffffffffffffffffffffffff1916149050919050565b600080611084836118e7565b9050600073ffffffffffffffffffffffffffffffffffffffff168173ffffffffffffffffffffffffffffffffffffffff16036110f757826040517f7e2732890000000000000000000000000000000000000000000000000000000081526004016110ee9190612191565b60405180910390fd5b80915050919050565b60006004600083815260200190815260200160002060009054906101000a900473ffffffffffffffffffffffffffffffffffffffff169050919050565b600033905090565b6111528383836001611924565b505050565b60606000600161116684611ae9565b01905060008167ffffffffffffffff811115611185576111846123b8565b5b6040519080825280601f01601f1916602001820160405280156111b75781602001600182028036833780820191505090505b509050600082602001820190505b60011561121a578080600190039150507f3031323334353637383961626364656600000000000000000000000000000000600a86061a8153600a858161120e5761120d612d71565b5b049450600085036111c5575b819350505050919050565b61122d61113d565b73ffffffffffffffffffffffffffffffffffffffff1661124b610bf2565b73ffffffffffffffffffffffffffffffffffffffff16146112aa5761126e61113d565b6040517f118cdaa70000000000000000000000000000000000000000000000000000000081526004016112a191906120fb565b60405180910390fd5b565b6000806112b8846118e7565b9050600073ffffffffffffffffffffffffffffffffffffffff168373ffffffffffffffffffffffffffffffffffffffff16146112fa576112f9818486611c3c565b5b600073ffffffffffffffffffffffffffffffffffffffff168173ffffffffffffffffffffffffffffffffffffffff161461138b5761133c600085600080611924565b6001600360008373ffffffffffffffffffffffffffffffffffffffff1673ffffffffffffffffffffffffffffffffffffffff168152602001908152602001600020600082825403925050819055505b600073ffffffffffffffffffffffffffffffffffffffff168573ffffffffffffffffffffffffffffffffffffffff161461140e576001600360008773ffffffffffffffffffffffffffffffffffffffff1673ffffffffffffffffffffffffffffffffffffffff168152602001908152602001600020600082825401925050819055505b846002600086815260200190815260200160002060006101000a81548173ffffffffffffffffffffffffffffffffffffffff021916908373ffffffffffffffffffffffffffffffffffffffff160217905550838573ffffffffffffffffffffffffffffffffffffffff168273ffffffffffffffffffffffffffffffffffffffff167fddf252ad1be2c89b69c2b068fc378daa952ba7f163c4a11628f55a4df523b3ef60405160405180910390a4809150509392505050565b6000600660009054906101000a900473ffffffffffffffffffffffffffffffffffffffff16905081600660006101000a81548173ffffffffffffffffffffffffffffffffffffffff021916908373ffffffffffffffffffffffffffffffffffffffff1602179055508173ffffffffffffffffffffffffffffffffffffffff168173ffffffffffffffffffffffffffffffffffffffff167f8be0079c531659141344cd1fd0a4f28419497f9722a3daafe3b4186f6b6457e060405160405180910390a35050565b6115a6828260405180602001604052806000815250611d00565b5050565b600073ffffffffffffffffffffffffffffffffffffffff168273ffffffffffffffffffffffffffffffffffffffff160361161b57816040517f5b08ba1800000000000000000000000000000000000000000000000000000000815260040161161291906120fb565b60405180910390fd5b80600560008573ffffffffffffffffffffffffffffffffffffffff1673ffffffffffffffffffffffffffffffffffffffff16815260200190815260200160002060008473ffffffffffffffffffffffffffffffffffffffff1673ffffffffffffffffffffffffffffffffffffffff16815260200190815260200160002060006101000a81548160ff0219169083151502179055508173ffffffffffffffffffffffffffffffffffffffff168373ffffffffffffffffffffffffffffffffffffffff167f17307eab39ab6107e8899845ad3d59bd9653f200f220920489ca2b5937696c318360405161170c9190611ef1565b60405180910390a3505050565b60008373ffffffffffffffffffffffffffffffffffffffff163b11156118ca578273ffffffffffffffffffffffffffffffffffffffff1663150b7a0261175d61113d565b8685856040518563ffffffff1660e01b815260040161177f9493929190612df5565b6020604051808303816000875af19250505080156117bb57506040513d601f19601f820116820180604052508101906117b89190612e56565b60015b61183f573d80600081146117eb576040519150601f19603f3d011682016040523d82523d6000602084013e6117f0565b606091505b50600081510361183757836040517f64a0ae9200000000000000000000000000000000000000000000000000000000815260040161182e91906120fb565b60405180910390fd5b805181602001fd5b63150b7a0260e01b7bffffffffffffffffffffffffffffffffffffffffffffffffffffffff1916817bffffffffffffffffffffffffffffffffffffffffffffffffffffffff1916146118c857836040517f64a0ae920000000000000000000000000000000000000000000000000000000081526004016118bf91906120fb565b60405180910390fd5b505b50505050565b606060405180602001604052806000815250905090565b60006002600083815260200190815260200160002060009054906101000a900473ffffffffffffffffffffffffffffffffffffffff169050919050565b808061195d5750600073ffffffffffffffffffffffffffffffffffffffff168273ffffffffffffffffffffffffffffffffffffffff1614155b15611a9157600061196d84611078565b9050600073ffffffffffffffffffffffffffffffffffffffff168373ffffffffffffffffffffffffffffffffffffffff16141580156119d857508273ffffffffffffffffffffffffffffffffffffffff168173ffffffffffffffffffffffffffffffffffffffff1614155b80156119eb57506119e98184610edc565b155b15611a2d57826040517fa9fbf51f000000000000000000000000000000000000000000000000000000008152600401611a2491906120fb565b60405180910390fd5b8115611a8f57838573ffffffffffffffffffffffffffffffffffffffff168273ffffffffffffffffffffffffffffffffffffffff167f8c5be1e5ebec7d5bd14f71427d1e84f3dd0314c0f7b2291e5b200ac8c7c3b92560405160405180910390a45b505b836004600085815260200190815260200160002060006101000a81548173ffffffffffffffffffffffffffffffffffffffff021916908373ffffffffffffffffffffffffffffffffffffffff16021790555050505050565b600080600090507a184f03e93ff9f4daa797ed6e38ed64bf6a1f0100000000000000008310611b47577a184f03e93ff9f4daa797ed6e38ed64bf6a1f0100000000000000008381611b3d57611b3c612d71565b5b0492506040810190505b6d04ee2d6d415b85acef81000000008310611b84576d04ee2d6d415b85acef81000000008381611b7a57611b79612d71565b5b0492506020810190505b662386f26fc100008310611bb357662386f26fc100008381611ba957611ba8612d71565b5b0492506010810190505b6305f5e1008310611bdc576305f5e1008381611bd257611bd1612d71565b5b0492506008810190505b6127108310611c01576127108381611bf757611bf6612d71565b5b0492506004810190505b60648310611c245760648381611c1a57611c19612d71565b5b0492506002810190505b600a8310611c33576001810190505b80915050919050565b611c47838383611d1c565b611cfb57600073ffffffffffffffffffffffffffffffffffffffff168373ffffffffffffffffffffffffffffffffffffffff1603611cbc57806040517f7e273289000000000000000000000000000000000000000000000000000000008152600401611cb39190612191565b60405180910390fd5b81816040517f177e802f000000000000000000000000000000000000000000000000000000008152600401611cf2929190612e83565b60405180910390fd5b505050565b611d0a8383611ddd565b611d176000848484611719565b505050565b60008073ffffffffffffffffffffffffffffffffffffffff168373ffffffffffffffffffffffffffffffffffffffff1614158015611dd457508273ffffffffffffffffffffffffffffffffffffffff168473ffffffffffffffffffffffffffffffffffffffff161480611d955750611d948484610edc565b5b80611dd357508273ffffffffffffffffffffffffffffffffffffffff16611dbb83611100565b73ffffffffffffffffffffffffffffffffffffffff16145b5b90509392505050565b600073ffffffffffffffffffffffffffffffffffffffff168273ffffffffffffffffffffffffffffffffffffffff1603611e4f5760006040517f64a0ae92000000000000000000000000000000000000000000000000000000008152600401611e4691906120fb565b60405180910390fd5b6000611e5d838360006112ac565b9050600073ffffffffffffffffffffffffffffffffffffffff168173ffffffffffffffffffffffffffffffffffffffff1614611ed15760006040517f73c6ac6e000000000000000000000000000000000000000000000000000000008152600401611ec891906120fb565b60405180910390fd5b505050565b60008115159050919050565b611eeb81611ed6565b82525050565b6000602082019050611f066000830184611ee2565b92915050565b6000604051905090565b600080fd5b600080fd5b60007fffffffff0000000000000000000000000000000000000000000000000000000082169050919050565b611f5581611f20565b8114611f6057600080fd5b50565b600081359050611f7281611f4c565b92915050565b600060208284031215611f8e57611f8d611f16565b5b6000611f9c84828501611f63565b91505092915050565b600081519050919050565b600082825260208201905092915050565b60005b83811015611fdf578082015181840152602081019050611fc4565b60008484015250505050565b6000601f19601f8301169050919050565b600061200782611fa5565b6120118185611fb0565b9350612021818560208601611fc1565b61202a81611feb565b840191505092915050565b6000602082019050818103600083015261204f8184611ffc565b905092915050565b6000819050919050565b61206a81612057565b811461207557600080fd5b50565b60008135905061208781612061565b92915050565b6000602082840312156120a3576120a2611f16565b5b60006120b184828501612078565b91505092915050565b600073ffffffffffffffffffffffffffffffffffffffff82169050919050565b60006120e5826120ba565b9050919050565b6120f5816120da565b82525050565b600060208201905061211060008301846120ec565b92915050565b61211f816120da565b811461212a57600080fd5b50565b60008135905061213c81612116565b92915050565b6000806040838503121561215957612158611f16565b5b60006121678582860161212d565b925050602061217885828601612078565b9150509250929050565b61218b81612057565b82525050565b60006020820190506121a66000830184612182565b92915050565b6121b581611ed6565b81146121c057600080fd5b50565b6000813590506121d2816121ac565b92915050565b6000602082840312156121ee576121ed611f16565b5b60006121fc848285016121c3565b91505092915050565b60008060006060848603121561221e5761221d611f16565b5b600061222c8682870161212d565b935050602061223d8682870161212d565b925050604061224e86828701612078565b9150509250925092565b60006020828403121561226e5761226d611f16565b5b600061227c8482850161212d565b91505092915050565b6000612290826120ba565b9050919050565b6122a081612285565b82525050565b60006020820190506122bb6000830184612297565b92915050565b600080fd5b600080fd5b600080fd5b60008083601f8401126122e6576122e56122c1565b5b8235905067ffffffffffffffff811115612303576123026122c6565b5b60208301915083600182028301111561231f5761231e6122cb565b5b9250929050565b6000806020838503121561233d5761233c611f16565b5b600083013567ffffffffffffffff81111561235b5761235a611f1b565b5b612367858286016122d0565b92509250509250929050565b6000806040838503121561238a57612389611f16565b5b60006123988582860161212d565b92505060206123a9858286016121c3565b9150509250929050565b600080fd5b7f4e487b7100000000000000000000000000000000000000000000000000000000600052604160045260246000fd5b6123f082611feb565b810181811067ffffffffffffffff8211171561240f5761240e6123b8565b5b80604052505050565b6000612422611f0c565b905061242e82826123e7565b919050565b600067ffffffffffffffff82111561244e5761244d6123b8565b5b61245782611feb565b9050602081019050919050565b82818337600083830152505050565b600061248661248184612433565b612418565b9050828152602081018484840111156124a2576124a16123b3565b5b6124ad848285612464565b509392505050565b600082601f8301126124ca576124c96122c1565b5b81356124da848260208601612473565b91505092915050565b600080600080608085870312156124fd576124fc611f16565b5b600061250b8782880161212d565b945050602061251c8782880161212d565b935050604061252d87828801612078565b925050606085013567ffffffffffffffff81111561254e5761254d611f1b565b5b61255a878288016124b5565b91505092959194509250565b6000806040838503121561257d5761257c611f16565b5b600061258b8582860161212d565b925050602061259c8582860161212d565b9150509250929050565b7f4e487b7100000000000000000000000000000000000000000000000000000000600052602260045260246000fd5b600060028204905060018216806125ed57607f821691505b602082108103612600576125ff6125a6565b5b50919050565b7f746f6b656e20646f6573206e6f74206578697374000000000000000000000000600082015250565b600061263c601483611fb0565b915061264782612606565b602082019050919050565b6000602082019050818103600083015261266b8161262f565b9050919050565b600081905092915050565b60008190508160005260206000209050919050565b6000815461269f816125d5565b6126a98186612672565b945060018216600081146126c457600181146126d95761270c565b60ff198316865281151582028601935061270c565b6126e28561267d565b60005b83811015612704578154818901526001820191506020810190506126e5565b838801955050505b50505092915050565b600061272082611fa5565b61272a8185612672565b935061273a818560208601611fc1565b80840191505092915050565b7f2e6a736f6e000000000000000000000000000000000000000000000000000000600082015250565b600061277c600583612672565b915061278782612746565b600582019050919050565b600061279e8285612692565b91506127aa8284612715565b91506127b58261276f565b91508190509392505050565b60006060820190506127d660008301866120ec565b6127e36020830185612182565b6127f060408301846120ec565b949350505050565b600081905092915050565b50565b60006128136000836127f8565b915061281e82612803565b600082019050919050565b600061283482612806565b9150819050919050565b7f7769746864726177206661696c65640000000000000000000000000000000000600082015250565b6000612874600f83611fb0565b915061287f8261283e565b602082019050919050565b600060208201905081810360008301526128a381612867565b9050919050565b600082905092915050565b60006020601f8301049050919050565b600082821b905092915050565b6000600883026129027fffffffffffffffffffffffffffffffffffffffffffffffffffffffffffffffff826128c5565b61290c86836128c5565b95508019841693508086168417925050509392505050565b6000819050919050565b600061294961294461293f84612057565b612924565b612057565b9050919050565b6000819050919050565b6129638361292e565b61297761296f82612950565b8484546128d2565b825550505050565b600090565b61298c61297f565b61299781848461295a565b505050565b5b818110156129bb576129b0600082612984565b60018101905061299d565b5050565b601f821115612a00576129d18161267d565b6129da846128b5565b810160208510156129e9578190505b6129fd6129f5856128b5565b83018261299c565b50505b505050565b600082821c905092915050565b6000612a2360001984600802612a05565b1980831691505092915050565b6000612a3c8383612a12565b9150826002028217905092915050565b612a5683836128aa565b67ffffffffffffffff811115612a6f57612a6e6123b8565b5b612a7982546125d5565b612a848282856129bf565b6000601f831160018114612ab35760008415612aa1578287013590505b612aab8582612a30565b865550612b13565b601f198416612ac18661267d565b60005b82811015612ae957848901358255600182019150602085019450602081019050612ac4565b86831015612b065784890135612b02601f891682612a12565b8355505b6001600288020188555050505b50505050505050565b7f6d696e74696e67206e6f7420656e61626c656400000000000000000000000000600082015250565b6000612b52601383611fb0565b9150612b5d82612b1c565b602082019050919050565b60006020820190508181036000830152612b8181612b45565b9050919050565b7f4e487b7100000000000000000000000000000000000000000000000000000000600052601160045260246000fd5b6000612bc282612057565b9150612bcd83612057565b9250828202612bdb81612057565b91508282048414831517612bf257612bf1612b88565b5b5092915050565b7f77726f6e67206d696e742076616c756500000000000000000000000000000000600082015250565b6000612c2f601083611fb0565b9150612c3a82612bf9565b602082019050919050565b60006020820190508181036000830152612c5e81612c22565b9050919050565b6000612c7082612057565b9150612c7b83612057565b9250828201905080821115612c9357612c92612b88565b5b92915050565b7f736f6c64206f7574000000000000000000000000000000000000000000000000600082015250565b6000612ccf600883611fb0565b9150612cda82612c99565b602082019050919050565b60006020820190508181036000830152612cfe81612cc2565b9050919050565b6000612d1082612057565b91507fffffffffffffffffffffffffffffffffffffffffffffffffffffffffffffffff8203612d4257612d41612b88565b5b600182019050919050565b6000612d598285612715565b9150612d658284612715565b91508190509392505050565b7f4e487b7100000000000000000000000000000000000000000000000000000000600052601260045260246000fd5b600081519050919050565b600082825260208201905092915050565b6000612dc782612da0565b612dd18185612dab565b9350612de1818560208601611fc1565b612dea81611feb565b840191505092915050565b6000608082019050612e0a60008301876120ec565b612e1760208301866120ec565b612e246040830185612182565b8181036060830152612e368184612dbc565b905095945050505050565b600081519050612e5081611f4c565b92915050565b600060208284031215612e6c57612e6b611f16565b5b6000612e7a84828501612e41565b91505092915050565b6000604082019050612e9860008301856120ec565b612ea56020830184612182565b939250505056fea26469706673582212200f61d678cca2630da022f87b30de81c894955d2defbbb9f4a2b1871d2f5109dd64736f6c63430008180033",
    "linkReferences": {},
    "deployedLinkReferences": {}
}